{
  "_format": "hh-sol-artifact-1",
  "contractName": "PiggyBank",
  "sourceName": "contracts/PiggyBank.sol",
  "abi": [
    {
      "inputs": [],
      "stateMutability": "nonpayable",
      "type": "constructor"
    },
    {
      "inputs": [
        {
          "internalType": "address",
          "name": "owner",
          "type": "address"
        }
      ],
      "name": "OwnableInvalidOwner",
      "type": "error"
    },
    {
      "inputs": [
        {
          "internalType": "address",
          "name": "account",
          "type": "address"
        }
      ],
      "name": "OwnableUnauthorizedAccount",
      "type": "error"
    },
    {
      "anonymous": false,
      "inputs": [
        {
          "indexed": true,
          "internalType": "address",
          "name": "token",
          "type": "address"
        },
        {
          "indexed": false,
          "internalType": "uint256",
          "name": "amount",
          "type": "uint256"
        }
      ],
      "name": "Deposit",
      "type": "event"
    },
    {
      "anonymous": false,
      "inputs": [
        {
          "indexed": true,
          "internalType": "address",
          "name": "previousOwner",
          "type": "address"
        },
        {
          "indexed": true,
          "internalType": "address",
          "name": "newOwner",
          "type": "address"
        }
      ],
      "name": "OwnershipTransferred",
      "type": "event"
    },
    {
      "anonymous": false,
      "inputs": [
        {
          "indexed": true,
          "internalType": "address",
          "name": "token",
          "type": "address"
        },
        {
          "indexed": false,
          "internalType": "uint256",
          "name": "amount",
          "type": "uint256"
        },
        {
          "indexed": false,
          "internalType": "uint256",
          "name": "penalty",
          "type": "uint256"
        }
      ],
      "name": "Withdrawal",
      "type": "event"
    },
    {
      "inputs": [],
      "name": "DAI",
      "outputs": [
        {
          "internalType": "address",
          "name": "",
          "type": "address"
        }
      ],
      "stateMutability": "view",
      "type": "function"
    },
    {
      "inputs": [],
      "name": "PENALTY_PERCENTAGE",
      "outputs": [
        {
          "internalType": "uint256",
          "name": "",
          "type": "uint256"
        }
      ],
      "stateMutability": "view",
      "type": "function"
    },
    {
      "inputs": [],
      "name": "USDC",
      "outputs": [
        {
          "internalType": "address",
          "name": "",
          "type": "address"
        }
      ],
      "stateMutability": "view",
      "type": "function"
    },
    {
      "inputs": [],
      "name": "USDT",
      "outputs": [
        {
          "internalType": "address",
          "name": "",
          "type": "address"
        }
      ],
      "stateMutability": "view",
      "type": "function"
    },
    {
      "inputs": [],
      "name": "creationDate",
      "outputs": [
        {
          "internalType": "uint256",
          "name": "",
          "type": "uint256"
        }
      ],
      "stateMutability": "view",
      "type": "function"
    },
    {
      "inputs": [
        {
          "internalType": "address",
          "name": "token",
          "type": "address"
        },
        {
          "internalType": "uint256",
          "name": "amount",
          "type": "uint256"
        }
      ],
      "name": "deposit",
      "outputs": [],
      "stateMutability": "nonpayable",
      "type": "function"
    },
    {
      "inputs": [],
      "name": "getTotalSavings",
      "outputs": [
        {
          "internalType": "uint256",
          "name": "usdtBalance",
          "type": "uint256"
        },
        {
          "internalType": "uint256",
          "name": "usdcBalance",
          "type": "uint256"
        },
        {
          "internalType": "uint256",
          "name": "daiBalance",
          "type": "uint256"
        }
      ],
      "stateMutability": "view",
      "type": "function"
    },
    {
      "inputs": [
        {
          "internalType": "address",
          "name": "owner",
          "type": "address"
        },
        {
          "internalType": "string",
          "name": "_savingPurpose",
          "type": "string"
        },
        {
          "internalType": "uint256",
          "name": "durationDays",
          "type": "uint256"
        }
      ],
      "name": "initialize",
      "outputs": [],
      "stateMutability": "nonpayable",
      "type": "function"
    },
    {
      "inputs": [],
      "name": "isActive",
      "outputs": [
        {
          "internalType": "bool",
          "name": "",
          "type": "bool"
        }
      ],
      "stateMutability": "view",
      "type": "function"
    },
    {
      "inputs": [],
      "name": "isSavingComplete",
      "outputs": [
        {
          "internalType": "bool",
          "name": "",
          "type": "bool"
        }
      ],
      "stateMutability": "view",
      "type": "function"
    },
    {
      "inputs": [],
      "name": "maturityDate",
      "outputs": [
        {
          "internalType": "uint256",
          "name": "",
          "type": "uint256"
        }
      ],
      "stateMutability": "view",
      "type": "function"
    },
    {
      "inputs": [],
      "name": "owner",
      "outputs": [
        {
          "internalType": "address",
          "name": "",
          "type": "address"
        }
      ],
      "stateMutability": "view",
      "type": "function"
    },
    {
      "inputs": [],
      "name": "renounceOwnership",
      "outputs": [],
      "stateMutability": "nonpayable",
      "type": "function"
    },
    {
      "inputs": [],
      "name": "savingPurpose",
      "outputs": [
        {
          "internalType": "string",
          "name": "",
          "type": "string"
        }
      ],
      "stateMutability": "view",
      "type": "function"
    },
    {
      "inputs": [],
      "name": "timeUntilMaturity",
      "outputs": [
        {
          "internalType": "uint256",
          "name": "",
          "type": "uint256"
        }
      ],
      "stateMutability": "view",
      "type": "function"
    },
    {
      "inputs": [
        {
          "internalType": "address",
          "name": "",
          "type": "address"
        }
      ],
      "name": "tokenBalances",
      "outputs": [
        {
          "internalType": "uint256",
          "name": "",
          "type": "uint256"
        }
      ],
      "stateMutability": "view",
      "type": "function"
    },
    {
      "inputs": [
        {
          "internalType": "address",
          "name": "newOwner",
          "type": "address"
        }
      ],
      "name": "transferOwnership",
      "outputs": [],
      "stateMutability": "nonpayable",
      "type": "function"
    },
    {
      "inputs": [
        {
          "internalType": "address",
          "name": "token",
          "type": "address"
        },
        {
          "internalType": "uint256",
          "name": "amount",
          "type": "uint256"
        }
      ],
      "name": "withdraw",
      "outputs": [],
      "stateMutability": "nonpayable",
      "type": "function"
    }
  ],
  "bytecode": "0x608060405234801561001057600080fd5b5033600073ffffffffffffffffffffffffffffffffffffffff168173ffffffffffffffffffffffffffffffffffffffff16036100845760006040517f1e4fbdf700000000000000000000000000000000000000000000000000000000815260040161007b91906101b9565b60405180910390fd5b610093816100b460201b60201c565b506000600460006101000a81548160ff0219169083151502179055506101d4565b60008060009054906101000a900473ffffffffffffffffffffffffffffffffffffffff169050816000806101000a81548173ffffffffffffffffffffffffffffffffffffffff021916908373ffffffffffffffffffffffffffffffffffffffff1602179055508173ffffffffffffffffffffffffffffffffffffffff168173ffffffffffffffffffffffffffffffffffffffff167f8be0079c531659141344cd1fd0a4f28419497f9722a3daafe3b4186f6b6457e060405160405180910390a35050565b600073ffffffffffffffffffffffffffffffffffffffff82169050919050565b60006101a382610178565b9050919050565b6101b381610198565b82525050565b60006020820190506101ce60008301846101aa565b92915050565b611a5e806101e36000396000f3fe608060405234801561001057600080fd5b50600436106101165760003560e01c80638da5cb5b116100a2578063d59624b411610071578063d59624b41461029b578063e0bab4c4146102b9578063e6888860146102d7578063f2fde38b146102f7578063f3fef3a31461031357610116565b80638da5cb5b146102255780638dac9bbc14610243578063c3fafb9c1461025f578063c54e44eb1461027d57610116565b8063523fba7f116100e9578063523fba7f146101915780635ac6d33d146101c1578063715018a6146101df57806383a5d70e146101e957806389a302711461020757610116565b806305b344101461011b578063123927a51461013957806322f3e2d41461015757806347e7ef2414610175575b600080fd5b61012361032f565b6040516101309190610f00565b60405180910390f35b610141610335565b60405161014e9190610f00565b60405180910390f35b61015f61033a565b60405161016c9190610f36565b60405180910390f35b61018f600480360381019061018a9190610fef565b61034d565b005b6101ab60048036038101906101a6919061102f565b610626565b6040516101b89190610f00565b60405180910390f35b6101c961063e565b6040516101d69190610f00565b60405180910390f35b6101e7610666565b005b6101f161067a565b6040516101fe9190610f36565b60405180910390f35b61020f610687565b60405161021c919061106b565b60405180910390f35b61022d61069f565b60405161023a919061106b565b60405180910390f35b61025d600480360381019061025891906111cc565b6106c8565b005b610267610778565b60405161027491906112ba565b60405180910390f35b610285610806565b604051610292919061106b565b60405180910390f35b6102a361081e565b6040516102b09190610f00565b60405180910390f35b6102c1610824565b6040516102ce919061106b565b60405180910390f35b6102df61083c565b6040516102ee939291906112dc565b60405180910390f35b610311600480360381019061030c919061102f565b610948565b005b61032d60048036038101906103289190610fef565b6109ce565b005b60025481565b600f81565b600460009054906101000a900460ff1681565b610355610d94565b600460009054906101000a900460ff166103a4576040517f08c379a000000000000000000000000000000000000000000000000000000000815260040161039b9061135f565b60405180910390fd5b73dac17f958d2ee523a2206206994597c13d831ec773ffffffffffffffffffffffffffffffffffffffff168273ffffffffffffffffffffffffffffffffffffffff161480610431575073a0b86991c6218b36c1d19d4a2e9eb0ce3606eb4873ffffffffffffffffffffffffffffffffffffffff168273ffffffffffffffffffffffffffffffffffffffff16145b8061047b5750736b175474e89094c44da98b954eedeac495271d0f73ffffffffffffffffffffffffffffffffffffffff168273ffffffffffffffffffffffffffffffffffffffff16145b6104ba576040517f08c379a00000000000000000000000000000000000000000000000000000000081526004016104b1906113cb565b60405180910390fd5b600081116104fd576040517f08c379a00000000000000000000000000000000000000000000000000000000081526004016104f490611437565b60405180910390fd5b8173ffffffffffffffffffffffffffffffffffffffff166323b872dd3330846040518463ffffffff1660e01b815260040161053a93929190611457565b6020604051808303816000875af1158015610559573d6000803e3d6000fd5b505050506040513d601f19601f8201168201806040525081019061057d91906114ba565b5080600560008473ffffffffffffffffffffffffffffffffffffffff1673ffffffffffffffffffffffffffffffffffffffff16815260200190815260200160002060008282546105cd9190611516565b925050819055508173ffffffffffffffffffffffffffffffffffffffff167fe1fffcc4923d04b559f4d29a8bfc6cda04eb5b0d3c460751c2402c5c5cc9109c8260405161061a9190610f00565b60405180910390a25050565b60056020528060005260406000206000915090505481565b600060035442106106525760009050610663565b42600354610660919061154a565b90505b90565b61066e610d94565b6106786000610e1b565b565b6000600354421015905090565b73a0b86991c6218b36c1d19d4a2e9eb0ce3606eb4881565b60008060009054906101000a900473ffffffffffffffffffffffffffffffffffffffff16905090565b600460009054906101000a900460ff1615610718576040517f08c379a000000000000000000000000000000000000000000000000000000000815260040161070f906115ca565b60405180910390fd5b61072183610e1b565b816001908161073091906117f6565b5042600281905550620151808161074791906118c8565b426107529190611516565b6003819055506001600460006101000a81548160ff021916908315150217905550505050565b6001805461078590611619565b80601f01602080910402602001604051908101604052809291908181526020018280546107b190611619565b80156107fe5780601f106107d3576101008083540402835291602001916107fe565b820191906000526020600020905b8154815290600101906020018083116107e157829003601f168201915b505050505081565b73dac17f958d2ee523a2206206994597c13d831ec781565b60035481565b736b175474e89094c44da98b954eedeac495271d0f81565b60008060006005600073dac17f958d2ee523a2206206994597c13d831ec773ffffffffffffffffffffffffffffffffffffffff1673ffffffffffffffffffffffffffffffffffffffff168152602001908152602001600020546005600073a0b86991c6218b36c1d19d4a2e9eb0ce3606eb4873ffffffffffffffffffffffffffffffffffffffff1673ffffffffffffffffffffffffffffffffffffffff1681526020019081526020016000205460056000736b175474e89094c44da98b954eedeac495271d0f73ffffffffffffffffffffffffffffffffffffffff1673ffffffffffffffffffffffffffffffffffffffff16815260200190815260200160002054925092509250909192565b610950610d94565b600073ffffffffffffffffffffffffffffffffffffffff168173ffffffffffffffffffffffffffffffffffffffff16036109c25760006040517f1e4fbdf70000000000000000000000000000000000000000000000000000000081526004016109b9919061106b565b60405180910390fd5b6109cb81610e1b565b50565b6109d6610d94565b80600560008473ffffffffffffffffffffffffffffffffffffffff1673ffffffffffffffffffffffffffffffffffffffff168152602001908152602001600020541015610a58576040517f08c379a0000000000000000000000000000000000000000000000000000000008152600401610a4f90611956565b60405180910390fd5b6000610a6261067a565b610b12576064600f83610a7591906118c8565b610a7f91906119a5565b90506000811115610b11578273ffffffffffffffffffffffffffffffffffffffff1663a9059cbb610aae61069f565b836040518363ffffffff1660e01b8152600401610acc9291906119d6565b6020604051808303816000875af1158015610aeb573d6000803e3d6000fd5b505050506040513d601f19601f82011682018060405250810190610b0f91906114ba565b505b5b8273ffffffffffffffffffffffffffffffffffffffff1663a9059cbb610b3661069f565b8385610b42919061154a565b6040518363ffffffff1660e01b8152600401610b5f9291906119d6565b6020604051808303816000875af1158015610b7e573d6000803e3d6000fd5b505050506040513d601f19601f82011682018060405250810190610ba291906114ba565b5081600560008573ffffffffffffffffffffffffffffffffffffffff1673ffffffffffffffffffffffffffffffffffffffff1681526020019081526020016000206000828254610bf2919061154a565b9250508190555060006001905060006005600073dac17f958d2ee523a2206206994597c13d831ec773ffffffffffffffffffffffffffffffffffffffff1673ffffffffffffffffffffffffffffffffffffffff168152602001908152602001600020541180610cb4575060006005600073a0b86991c6218b36c1d19d4a2e9eb0ce3606eb4873ffffffffffffffffffffffffffffffffffffffff1673ffffffffffffffffffffffffffffffffffffffff16815260200190815260200160002054115b80610d125750600060056000736b175474e89094c44da98b954eedeac495271d0f73ffffffffffffffffffffffffffffffffffffffff1673ffffffffffffffffffffffffffffffffffffffff16815260200190815260200160002054115b15610d1c57600090505b8015610d3e576000600460006101000a81548160ff0219169083151502179055505b8373ffffffffffffffffffffffffffffffffffffffff167fdf273cb619d95419a9cd0ec88123a0538c85064229baa6363788f743fff90deb8484604051610d869291906119ff565b60405180910390a250505050565b610d9c610edf565b73ffffffffffffffffffffffffffffffffffffffff16610dba61069f565b73ffffffffffffffffffffffffffffffffffffffff1614610e1957610ddd610edf565b6040517f118cdaa7000000000000000000000000000000000000000000000000000000008152600401610e10919061106b565b60405180910390fd5b565b60008060009054906101000a900473ffffffffffffffffffffffffffffffffffffffff169050816000806101000a81548173ffffffffffffffffffffffffffffffffffffffff021916908373ffffffffffffffffffffffffffffffffffffffff1602179055508173ffffffffffffffffffffffffffffffffffffffff168173ffffffffffffffffffffffffffffffffffffffff167f8be0079c531659141344cd1fd0a4f28419497f9722a3daafe3b4186f6b6457e060405160405180910390a35050565b600033905090565b6000819050919050565b610efa81610ee7565b82525050565b6000602082019050610f156000830184610ef1565b92915050565b60008115159050919050565b610f3081610f1b565b82525050565b6000602082019050610f4b6000830184610f27565b92915050565b6000604051905090565b600080fd5b600080fd5b600073ffffffffffffffffffffffffffffffffffffffff82169050919050565b6000610f9082610f65565b9050919050565b610fa081610f85565b8114610fab57600080fd5b50565b600081359050610fbd81610f97565b92915050565b610fcc81610ee7565b8114610fd757600080fd5b50565b600081359050610fe981610fc3565b92915050565b6000806040838503121561100657611005610f5b565b5b600061101485828601610fae565b925050602061102585828601610fda565b9150509250929050565b60006020828403121561104557611044610f5b565b5b600061105384828501610fae565b91505092915050565b61106581610f85565b82525050565b6000602082019050611080600083018461105c565b92915050565b600080fd5b600080fd5b6000601f19601f8301169050919050565b7f4e487b7100000000000000000000000000000000000000000000000000000000600052604160045260246000fd5b6110d982611090565b810181811067ffffffffffffffff821117156110f8576110f76110a1565b5b80604052505050565b600061110b610f51565b905061111782826110d0565b919050565b600067ffffffffffffffff821115611137576111366110a1565b5b61114082611090565b9050602081019050919050565b82818337600083830152505050565b600061116f61116a8461111c565b611101565b90508281526020810184848401111561118b5761118a61108b565b5b61119684828561114d565b509392505050565b600082601f8301126111b3576111b2611086565b5b81356111c384826020860161115c565b91505092915050565b6000806000606084860312156111e5576111e4610f5b565b5b60006111f386828701610fae565b935050602084013567ffffffffffffffff81111561121457611213610f60565b5b6112208682870161119e565b925050604061123186828701610fda565b9150509250925092565b600081519050919050565b600082825260208201905092915050565b60005b8381101561127557808201518184015260208101905061125a565b60008484015250505050565b600061128c8261123b565b6112968185611246565b93506112a6818560208601611257565b6112af81611090565b840191505092915050565b600060208201905081810360008301526112d48184611281565b905092915050565b60006060820190506112f16000830186610ef1565b6112fe6020830185610ef1565b61130b6040830184610ef1565b949350505050565b7f506967677942616e6b206973206e6f206c6f6e67657220616374697665000000600082015250565b6000611349601d83611246565b915061135482611313565b602082019050919050565b600060208201905081810360008301526113788161133c565b9050919050565b7f546f6b656e206e6f7420616c6c6f776564000000000000000000000000000000600082015250565b60006113b5601183611246565b91506113c08261137f565b602082019050919050565b600060208201905081810360008301526113e4816113a8565b9050919050565b7f416d6f756e74206d7573742062652067726561746572207468616e2030000000600082015250565b6000611421601d83611246565b915061142c826113eb565b602082019050919050565b6000602082019050818103600083015261145081611414565b9050919050565b600060608201905061146c600083018661105c565b611479602083018561105c565b6114866040830184610ef1565b949350505050565b61149781610f1b565b81146114a257600080fd5b50565b6000815190506114b48161148e565b92915050565b6000602082840312156114d0576114cf610f5b565b5b60006114de848285016114a5565b91505092915050565b7f4e487b7100000000000000000000000000000000000000000000000000000000600052601160045260246000fd5b600061152182610ee7565b915061152c83610ee7565b9250828201905080821115611544576115436114e7565b5b92915050565b600061155582610ee7565b915061156083610ee7565b9250828203905081811115611578576115776114e7565b5b92915050565b7f506967677942616e6b20616c726561647920696e697469616c697a6564000000600082015250565b60006115b4601d83611246565b91506115bf8261157e565b602082019050919050565b600060208201905081810360008301526115e3816115a7565b9050919050565b7f4e487b7100000000000000000000000000000000000000000000000000000000600052602260045260246000fd5b6000600282049050600182168061163157607f821691505b602082108103611644576116436115ea565b5b50919050565b60008190508160005260206000209050919050565b60006020601f8301049050919050565b600082821b905092915050565b6000600883026116ac7fffffffffffffffffffffffffffffffffffffffffffffffffffffffffffffffff8261166f565b6116b6868361166f565b95508019841693508086168417925050509392505050565b6000819050919050565b60006116f36116ee6116e984610ee7565b6116ce565b610ee7565b9050919050565b6000819050919050565b61170d836116d8565b611721611719826116fa565b84845461167c565b825550505050565b600090565b611736611729565b611741818484611704565b505050565b5b818110156117655761175a60008261172e565b600181019050611747565b5050565b601f8211156117aa5761177b8161164a565b6117848461165f565b81016020851015611793578190505b6117a761179f8561165f565b830182611746565b50505b505050565b600082821c905092915050565b60006117cd600019846008026117af565b1980831691505092915050565b60006117e683836117bc565b9150826002028217905092915050565b6117ff8261123b565b67ffffffffffffffff811115611818576118176110a1565b5b6118228254611619565b61182d828285611769565b600060209050601f831160018114611860576000841561184e578287015190505b61185885826117da565b8655506118c0565b601f19841661186e8661164a565b60005b8281101561189657848901518255600182019150602085019450602081019050611871565b868310156118b357848901516118af601f8916826117bc565b8355505b6001600288020188555050505b505050505050565b60006118d382610ee7565b91506118de83610ee7565b92508282026118ec81610ee7565b91508282048414831517611903576119026114e7565b5b5092915050565b7f496e73756666696369656e742062616c616e6365000000000000000000000000600082015250565b6000611940601483611246565b915061194b8261190a565b602082019050919050565b6000602082019050818103600083015261196f81611933565b9050919050565b7f4e487b7100000000000000000000000000000000000000000000000000000000600052601260045260246000fd5b60006119b082610ee7565b91506119bb83610ee7565b9250826119cb576119ca611976565b5b828204905092915050565b60006040820190506119eb600083018561105c565b6119f86020830184610ef1565b9392505050565b6000604082019050611a146000830185610ef1565b611a216020830184610ef1565b939250505056fea2646970667358221220e8f75d63178e3621c34d49f8e94531e29e80d57f025a615ecba47e6505f5114664736f6c634300081c0033",
  "linkReferences": {},
  "deployedLinkReferences": {}
}